{
  "_format": "hh-sol-artifact-1",
  "contractName": "Tournament",
  "sourceName": "contracts/tournament.sol",
  "abi": [
    {
      "inputs": [],
      "stateMutability": "nonpayable",
      "type": "constructor"
    },
    {
      "inputs": [
        {
          "internalType": "uint256",
          "name": "_isTournament",
          "type": "uint256"
        },
        {
          "internalType": "uint256",
          "name": "_matchId",
          "type": "uint256"
        },
        {
          "internalType": "uint256",
          "name": "_p1Score",
          "type": "uint256"
        },
        {
          "internalType": "uint256",
          "name": "_p2Score",
          "type": "uint256"
        },
        {
          "internalType": "uint256",
          "name": "_p1",
          "type": "uint256"
        },
        {
          "internalType": "uint256",
          "name": "_p2",
          "type": "uint256"
        },
        {
          "internalType": "uint256",
          "name": "_winner",
          "type": "uint256"
        }
      ],
      "name": "createMatch",
      "outputs": [],
      "stateMutability": "nonpayable",
      "type": "function"
    },
    {
      "inputs": [
        {
          "internalType": "string",
          "name": "_tournamentName",
          "type": "string"
        },
        {
          "internalType": "uint256",
          "name": "_tournamentId",
          "type": "uint256"
        },
        {
          "internalType": "uint256",
          "name": "_nbPlayers",
          "type": "uint256"
        }
      ],
      "name": "createTournament",
      "outputs": [],
      "stateMutability": "nonpayable",
      "type": "function"
    },
    {
      "inputs": [
        {
          "internalType": "uint256",
          "name": "_matchId",
          "type": "uint256"
        }
      ],
      "name": "getMatchData",
      "outputs": [
        {
          "internalType": "uint256",
          "name": "matchId",
          "type": "uint256"
        },
        {
          "internalType": "uint256",
          "name": "p1",
          "type": "uint256"
        },
        {
          "internalType": "uint256",
          "name": "p1Score",
          "type": "uint256"
        },
        {
          "internalType": "uint256",
          "name": "p2",
          "type": "uint256"
        },
        {
          "internalType": "uint256",
          "name": "p2Score",
          "type": "uint256"
        },
        {
          "internalType": "uint256",
          "name": "winner",
          "type": "uint256"
        }
      ],
      "stateMutability": "view",
      "type": "function"
    },
    {
      "inputs": [
        {
          "internalType": "uint256",
          "name": "_player",
          "type": "uint256"
        }
      ],
      "name": "getPlayerMatches",
      "outputs": [
        {
          "internalType": "uint256[]",
          "name": "",
          "type": "uint256[]"
        }
      ],
      "stateMutability": "view",
      "type": "function"
    },
    {
      "inputs": [
        {
          "internalType": "uint256",
          "name": "_tournamentId",
          "type": "uint256"
        }
      ],
      "name": "getTournamentData",
      "outputs": [
        {
          "internalType": "string",
          "name": "tournamentName",
          "type": "string"
        },
        {
          "internalType": "uint256",
          "name": "tournamentId",
          "type": "uint256"
        },
        {
          "internalType": "uint256",
          "name": "nbPlayers",
          "type": "uint256"
        },
        {
          "internalType": "uint256[]",
          "name": "matchIds",
          "type": "uint256[]"
        }
      ],
      "stateMutability": "view",
      "type": "function"
    }
  ],
  "bytecode": "0x608060405234801561001057600080fd5b50336000806101000a81548173ffffffffffffffffffffffffffffffffffffffff021916908373ffffffffffffffffffffffffffffffffffffffff1602179055506111a9806100606000396000f3fe608060405234801561001057600080fd5b50600436106100575760003560e01c806346be4cb51461005c578063af97524014610078578063d079d908146100a8578063dab6a212146100dd578063e0e0570914610110575b600080fd5b61007660048036038101906100719190610972565b61012c565b005b610092600480360381019061008d91906109e6565b61029b565b60405161009f9190610ad1565b60405180910390f35b6100c260048036038101906100bd91906109e6565b610437565b6040516100d496959493929190610b02565b60405180910390f35b6100f760048036038101906100f291906109e6565b61052b565b6040516101079493929190610bf3565b60405180910390f35b61012a60048036038101906101259190610c46565b6106cf565b005b60008054906101000a900473ffffffffffffffffffffffffffffffffffffffff1673ffffffffffffffffffffffffffffffffffffffff163373ffffffffffffffffffffffffffffffffffffffff161461018457600080fd5b6000604051806080016040528086868080601f016020809104026020016040519081016040528093929190818152602001838380828437600081840152601f19601f820116905080830192505050505050508152602001848152602001838152602001600067ffffffffffffffff81111561020257610201610ce8565b5b6040519080825280602002602001820160405280156102305781602001602082028036833780820191505090505b5081525090508060016000858152602001908152602001600020600082015181600001908161025f9190610f23565b5060208201518160010155604082015181600201556060820151816003019080519060200190610290929190610863565b509050505050505050565b6060600080600190505b60006002600083815260200190815260200160002060000154146103235783600260008381526020019081526020016000206001015414806102fc5750836002600083815260200190815260200160002060030154145b1561031057818061030c90611024565b9250505b808061031b90611024565b9150506102a5565b5060008167ffffffffffffffff8111156103405761033f610ce8565b5b60405190808252806020026020018201604052801561036e5781602001602082028036833780820191505090505b509050600080600190505b600060026000838152602001908152602001600020600001541461042b5785600260008381526020019081526020016000206001015414806103d05750856002600083815260200190815260200160002060030154145b156104185760026000828152602001908152602001600020600001548383806103f890611024565b94508151811061040b5761040a61106c565b5b6020026020010181815250505b808061042390611024565b915050610379565b50819350505050919050565b6000806000806000806000600260008981526020019081526020016000206000015403610499576040517f08c379a0000000000000000000000000000000000000000000000000000000008152600401610490906110e7565b60405180910390fd5b6000600260008981526020019081526020016000206040518060c001604052908160008201548152602001600182015481526020016002820154815260200160038201548152602001600482015481526020016005820154815250509050806000015181602001518260400151836060015184608001518560a001519650965096509650965096505091939550919395565b60606000806060600060016000878152602001908152602001600020600101540361058b576040517f08c379a000000000000000000000000000000000000000000000000000000000815260040161058290611153565b60405180910390fd5b6000600160008781526020019081526020016000206040518060800160405290816000820180546105bb90610d46565b80601f01602080910402602001604051908101604052809291908181526020018280546105e790610d46565b80156106345780601f1061060957610100808354040283529160200191610634565b820191906000526020600020905b81548152906001019060200180831161061757829003601f168201915b505050505081526020016001820154815260200160028201548152602001600382018054806020026020016040519081016040528092919081815260200182805480156106a057602002820191906000526020600020905b81548152602001906001019080831161068c575b505050505081525050905080600001518160200151826040015183606001519450945094509450509193509193565b60008054906101000a900473ffffffffffffffffffffffffffffffffffffffff1673ffffffffffffffffffffffffffffffffffffffff163373ffffffffffffffffffffffffffffffffffffffff161461072757600080fd5b60006040518060c00160405280888152602001858152602001878152602001848152602001868152602001838152509050600088111561076c5761076b87896107c9565b5b8060026000898152602001908152602001600020600082015181600001556020820151816001015560408201518160020155606082015181600301556080820151816004015560a082015181600501559050505050505050505050565b6000600160008381526020019081526020016000206001015403610822576040517f08c379a000000000000000000000000000000000000000000000000000000000815260040161081990611153565b60405180910390fd5b600160008281526020019081526020016000206003018290806001815401808255809150506001900390600052602060002001600090919091909150555050565b82805482825590600052602060002090810192821561089f579160200282015b8281111561089e578251825591602001919060010190610883565b5b5090506108ac91906108b0565b5090565b5b808211156108c95760008160009055506001016108b1565b5090565b600080fd5b600080fd5b600080fd5b600080fd5b600080fd5b60008083601f8401126108fc576108fb6108d7565b5b8235905067ffffffffffffffff811115610919576109186108dc565b5b602083019150836001820283011115610935576109346108e1565b5b9250929050565b6000819050919050565b61094f8161093c565b811461095a57600080fd5b50565b60008135905061096c81610946565b92915050565b6000806000806060858703121561098c5761098b6108cd565b5b600085013567ffffffffffffffff8111156109aa576109a96108d2565b5b6109b6878288016108e6565b945094505060206109c98782880161095d565b92505060406109da8782880161095d565b91505092959194509250565b6000602082840312156109fc576109fb6108cd565b5b6000610a0a8482850161095d565b91505092915050565b600081519050919050565b600082825260208201905092915050565b6000819050602082019050919050565b610a488161093c565b82525050565b6000610a5a8383610a3f565b60208301905092915050565b6000602082019050919050565b6000610a7e82610a13565b610a888185610a1e565b9350610a9383610a2f565b8060005b83811015610ac4578151610aab8882610a4e565b9750610ab683610a66565b925050600181019050610a97565b5085935050505092915050565b60006020820190508181036000830152610aeb8184610a73565b905092915050565b610afc8161093c565b82525050565b600060c082019050610b176000830189610af3565b610b246020830188610af3565b610b316040830187610af3565b610b3e6060830186610af3565b610b4b6080830185610af3565b610b5860a0830184610af3565b979650505050505050565b600081519050919050565b600082825260208201905092915050565b60005b83811015610b9d578082015181840152602081019050610b82565b60008484015250505050565b6000601f19601f8301169050919050565b6000610bc582610b63565b610bcf8185610b6e565b9350610bdf818560208601610b7f565b610be881610ba9565b840191505092915050565b60006080820190508181036000830152610c0d8187610bba565b9050610c1c6020830186610af3565b610c296040830185610af3565b8181036060830152610c3b8184610a73565b905095945050505050565b600080600080600080600060e0888a031215610c6557610c646108cd565b5b6000610c738a828b0161095d565b9750506020610c848a828b0161095d565b9650506040610c958a828b0161095d565b9550506060610ca68a828b0161095d565b9450506080610cb78a828b0161095d565b93505060a0610cc88a828b0161095d565b92505060c0610cd98a828b0161095d565b91505092959891949750929550565b7f4e487b7100000000000000000000000000000000000000000000000000000000600052604160045260246000fd5b7f4e487b7100000000000000000000000000000000000000000000000000000000600052602260045260246000fd5b60006002820490506001821680610d5e57607f821691505b602082108103610d7157610d70610d17565b5b50919050565b60008190508160005260206000209050919050565b60006020601f8301049050919050565b600082821b905092915050565b600060088302610dd97fffffffffffffffffffffffffffffffffffffffffffffffffffffffffffffffff82610d9c565b610de38683610d9c565b95508019841693508086168417925050509392505050565b6000819050919050565b6000610e20610e1b610e168461093c565b610dfb565b61093c565b9050919050565b6000819050919050565b610e3a83610e05565b610e4e610e4682610e27565b848454610da9565b825550505050565b600090565b610e63610e56565b610e6e818484610e31565b505050565b5b81811015610e9257610e87600082610e5b565b600181019050610e74565b5050565b601f821115610ed757610ea881610d77565b610eb184610d8c565b81016020851015610ec0578190505b610ed4610ecc85610d8c565b830182610e73565b50505b505050565b600082821c905092915050565b6000610efa60001984600802610edc565b1980831691505092915050565b6000610f138383610ee9565b9150826002028217905092915050565b610f2c82610b63565b67ffffffffffffffff811115610f4557610f44610ce8565b5b610f4f8254610d46565b610f5a828285610e96565b600060209050601f831160018114610f8d5760008415610f7b578287015190505b610f858582610f07565b865550610fed565b601f198416610f9b86610d77565b60005b82811015610fc357848901518255600182019150602085019450602081019050610f9e565b86831015610fe05784890151610fdc601f891682610ee9565b8355505b6001600288020188555050505b505050505050565b7f4e487b7100000000000000000000000000000000000000000000000000000000600052601160045260246000fd5b600061102f8261093c565b91507fffffffffffffffffffffffffffffffffffffffffffffffffffffffffffffffff820361106157611060610ff5565b5b600182019050919050565b7f4e487b7100000000000000000000000000000000000000000000000000000000600052603260045260246000fd5b7f4d6174636820646f6573206e6f74206578697374000000000000000000000000600082015250565b60006110d1601483610b6e565b91506110dc8261109b565b602082019050919050565b60006020820190508181036000830152611100816110c4565b9050919050565b7f546f75726e616d656e7420646f6573206e6f7420657869737400000000000000600082015250565b600061113d601983610b6e565b915061114882611107565b602082019050919050565b6000602082019050818103600083015261116c81611130565b905091905056fea2646970667358221220127f7b1bf68abd030010daf861dafcfa8964f575ab907dc717e17d550043decf64736f6c63430008140033",
  "linkReferences": {},
  "deployedLinkReferences": {}
}